{
  "_format": "hh-sol-artifact-1",
  "contractName": "AgentMarketPlace",
  "sourceName": "contracts/Marketplace.sol",
  "address": "0x4a78FB45F544BAc5ab59b71f1Fd53F67b6785129",
  "abi": [
    {
      "inputs": [
        {
          "internalType": "address",
          "name": "_usdcAddress",
          "type": "address"
        }
      ],
      "stateMutability": "nonpayable",
      "type": "constructor"
    },
    {
      "inputs": [
        {
          "internalType": "address",
          "name": "owner",
          "type": "address"
        }
      ],
      "name": "OwnableInvalidOwner",
      "type": "error"
    },
    {
      "inputs": [
        {
          "internalType": "address",
          "name": "account",
          "type": "address"
        }
      ],
      "name": "OwnableUnauthorizedAccount",
      "type": "error"
    },
    {
      "inputs": [],
      "name": "UnauthorizedAttester",
      "type": "error"
    },
    {
      "anonymous": false,
      "inputs": [
        {
          "indexed": true,
          "internalType": "address",
          "name": "previousOwner",
          "type": "address"
        },
        {
          "indexed": true,
          "internalType": "address",
          "name": "newOwner",
          "type": "address"
        }
      ],
      "name": "OwnershipTransferred",
      "type": "event"
    },
    {
      "anonymous": false,
      "inputs": [
        {
          "indexed": false,
          "internalType": "address",
          "name": "agentFactoryAddress",
          "type": "address"
        },
        {
          "indexed": false,
          "internalType": "address",
          "name": "agentDeveloper",
          "type": "address"
        },
        {
          "indexed": false,
          "internalType": "string",
          "name": "agentId",
          "type": "string"
        },
        {
          "indexed": false,
          "internalType": "uint256",
          "name": "ratePerToken",
          "type": "uint256"
        }
      ],
      "name": "agentFactoryDeployed",
      "type": "event"
    },
    {
      "inputs": [
        {
          "internalType": "string",
          "name": "",
          "type": "string"
        }
      ],
      "name": "agentIdToAgentAddress",
      "outputs": [
        {
          "internalType": "address",
          "name": "",
          "type": "address"
        }
      ],
      "stateMutability": "view",
      "type": "function"
    },
    {
      "inputs": [
        {
          "internalType": "string",
          "name": "",
          "type": "string"
        },
        {
          "internalType": "string",
          "name": "",
          "type": "string"
        }
      ],
      "name": "agentId_To_JobId_To_Job",
      "outputs": [
        {
          "internalType": "address",
          "name": "fromUserWallet",
          "type": "address"
        },
        {
          "internalType": "address",
          "name": "toAgentAddress",
          "type": "address"
        },
        {
          "internalType": "uint256",
          "name": "value",
          "type": "uint256"
        },
        {
          "internalType": "uint256",
          "name": "time",
          "type": "uint256"
        },
        {
          "internalType": "enum AgentMarketPlace.JobStatus",
          "name": "jobstatus",
          "type": "uint8"
        }
      ],
      "stateMutability": "view",
      "type": "function"
    },
    {
      "inputs": [
        {
          "internalType": "address",
          "name": "_to",
          "type": "address"
        },
        {
          "internalType": "uint256",
          "name": "_value",
          "type": "uint256"
        }
      ],
      "name": "approveToMarketplace",
      "outputs": [],
      "stateMutability": "nonpayable",
      "type": "function"
    },
    {
      "inputs": [
        {
          "internalType": "string",
          "name": "_agentId",
          "type": "string"
        },
        {
          "internalType": "uint256",
          "name": "_ratePerToken",
          "type": "uint256"
        },
        {
          "internalType": "address",
          "name": "_agentDeveloper",
          "type": "address"
        }
      ],
      "name": "deployAgentFactory",
      "outputs": [
        {
          "internalType": "address",
          "name": "",
          "type": "address"
        }
      ],
      "stateMutability": "nonpayable",
      "type": "function"
    },
    {
      "inputs": [
        {
          "internalType": "address",
          "name": "attester",
          "type": "address"
        },
        {
          "internalType": "uint64",
          "name": "",
          "type": "uint64"
        },
        {
          "internalType": "uint64",
          "name": "",
          "type": "uint64"
        },
        {
          "internalType": "bytes",
          "name": "extraData",
          "type": "bytes"
        }
      ],
      "name": "didReceiveAttestation",
      "outputs": [],
      "stateMutability": "payable",
      "type": "function"
    },
    {
      "inputs": [
        {
          "internalType": "string",
          "name": "_agentId",
          "type": "string"
        },
        {
          "internalType": "string",
          "name": "_jobId",
          "type": "string"
        },
        {
          "internalType": "uint256",
          "name": "_amount",
          "type": "uint256"
        }
      ],
      "name": "disBurseFunds",
      "outputs": [],
      "stateMutability": "nonpayable",
      "type": "function"
    },
    {
      "inputs": [
        {
          "internalType": "string",
          "name": "_agentId",
          "type": "string"
        },
        {
          "internalType": "string",
          "name": "_jobId",
          "type": "string"
        }
      ],
      "name": "getAgentJobStatus",
      "outputs": [
        {
          "internalType": "enum AgentMarketPlace.JobStatus",
          "name": "",
          "type": "uint8"
        }
      ],
      "stateMutability": "view",
      "type": "function"
    },
    {
      "inputs": [
        {
          "internalType": "address",
          "name": "_from",
          "type": "address"
        }
      ],
      "name": "hasAllowance",
      "outputs": [
        {
          "internalType": "uint256",
          "name": "",
          "type": "uint256"
        }
      ],
      "stateMutability": "view",
      "type": "function"
    },
    {
      "inputs": [],
      "name": "owner",
      "outputs": [
        {
          "internalType": "address",
          "name": "",
          "type": "address"
        }
      ],
      "stateMutability": "view",
      "type": "function"
    },
    {
      "inputs": [],
      "name": "renounceOwnership",
      "outputs": [],
      "stateMutability": "nonpayable",
      "type": "function"
    },
    {
      "inputs": [
        {
          "internalType": "address",
          "name": "attester",
          "type": "address"
        },
        {
          "internalType": "bool",
          "name": "allowed",
          "type": "bool"
        }
      ],
      "name": "setWhitelist",
      "outputs": [],
      "stateMutability": "nonpayable",
      "type": "function"
    },
    {
      "inputs": [
        {
          "internalType": "address",
          "name": "newOwner",
          "type": "address"
        }
      ],
      "name": "transferOwnership",
      "outputs": [],
      "stateMutability": "nonpayable",
      "type": "function"
    },
    {
      "inputs": [
        {
          "internalType": "string",
          "name": "_agentId",
          "type": "string"
        },
        {
          "internalType": "string",
          "name": "_jobId",
          "type": "string"
        },
        {
          "internalType": "enum AgentMarketPlace.JobStatus",
          "name": "_jobStatus",
          "type": "uint8"
        }
      ],
      "name": "updateJobStatus",
      "outputs": [],
      "stateMutability": "nonpayable",
      "type": "function"
    },
    {
      "inputs": [],
      "name": "usdcAddress",
      "outputs": [
        {
          "internalType": "address",
          "name": "",
          "type": "address"
        }
      ],
      "stateMutability": "view",
      "type": "function"
    },
    {
      "inputs": [
        {
          "internalType": "address",
          "name": "attester",
          "type": "address"
        }
      ],
      "name": "whitelist",
      "outputs": [
        {
          "internalType": "bool",
          "name": "allowed",
          "type": "bool"
        }
      ],
      "stateMutability": "view",
      "type": "function"
    }
  ],
  "bytecode": "0x608060405234801561001057600080fd5b5060405161272b38038061272b83398101604081905261002f916100d4565b338061005557604051631e4fbdf760e01b81526000600482015260240160405180910390fd5b61005e81610084565b50600180546001600160a01b0319166001600160a01b0392909216919091179055610104565b600080546001600160a01b038381166001600160a01b0319831681178455604051919092169283917f8be0079c531659141344cd1fd0a4f28419497f9722a3daafe3b4186f6b6457e09190a35050565b6000602082840312156100e657600080fd5b81516001600160a01b03811681146100fd57600080fd5b9392505050565b612618806101136000396000f3fe6080604052600436106100e85760003560e01c8063715018a61161008a578063dc93e2fc11610059578063dc93e2fc14610300578063f2fde38b14610341578063f4e9a45214610361578063fb4d48af1461038157600080fd5b8063715018a61461026d5780637ca4a7b3146102825780638da5cb5b146102a25780639b19251a146102c057600080fd5b806347fcc297116100c657806347fcc2971461016d5780634dd501e61461020057806353d6fd591461022d5780636c80df8d1461024d57600080fd5b806302d45457146100ed578063110f78031461012a5780633398b4ed14610158575b600080fd5b3480156100f957600080fd5b5060015461010d906001600160a01b031681565b6040516001600160a01b0390911681526020015b60405180910390f35b34801561013657600080fd5b5061014a610145366004610d0b565b6103a1565b604051908152602001610121565b61016b610166366004610d4c565b610435565b005b34801561017957600080fd5b506101ef610188366004610e97565b815180830160209081018051600480835293830195830195909520949052825180840182018051958152908201939091019290922092909152815460018301546002840154600385015494909301546001600160a01b039283169491909216929160ff1685565b604051610121959493929190610f38565b34801561020c57600080fd5b5061022061021b366004610e97565b610577565b6040516101219190610f75565b34801561023957600080fd5b5061016b610248366004610f91565b6105c3565b34801561025957600080fd5b5061016b610268366004610fca565b505050565b34801561027957600080fd5b5061016b6105f6565b34801561028e57600080fd5b5061010d61029d36600461104b565b61060a565b3480156102ae57600080fd5b506000546001600160a01b031661010d565b3480156102cc57600080fd5b506102f06102db366004610d0b565b60036020526000908152604090205460ff1681565b6040519015158152602001610121565b34801561030c57600080fd5b5061010d61031b36600461109b565b80516020818301810180516002825292820191909301209152546001600160a01b031681565b34801561034d57600080fd5b5061016b61035c366004610d0b565b610864565b34801561036d57600080fd5b5061016b61037c3660046110d8565b6108bb565b34801561038d57600080fd5b5061016b61039c36600461114b565b610ac9565b6001546040517fdd62ed3e0000000000000000000000000000000000000000000000000000000081526001600160a01b038381166004830152306024830152600092169063dd62ed3e90604401602060405180830381865afa15801561040b573d6000803e3d6000fd5b505050506040513d601f19601f8201168201806040525081019061042f9190611177565b92915050565b61043e85610b59565b60008080808061045086880188611190565b945094509450945094506040518060a00160405280866001600160a01b03168152602001856001600160a01b03168152602001848152602001428152602001600060028111156104a2576104a2610f00565b8152506004836040516104b5919061124c565b9081526020016040518091039020826040516104d1919061124c565b90815260408051602092819003830190208351815473ffffffffffffffffffffffffffffffffffffffff199081166001600160a01b03928316178355938501516001808401805490961691909216179093559083015160028083019190915560608401516003830155608084015160048301805493949193909260ff199091169190849081111561056457610564610f00565b0217905550505050505050505050505050565b6000600483604051610589919061124c565b9081526020016040518091039020826040516105a5919061124c565b9081526040519081900360200190206004015460ff16905092915050565b6105cb610bab565b6001600160a01b03919091166000908152600360205260409020805460ff1916911515919091179055565b6105fe610bab565b6106086000610bf1565b565b6000806001600160a01b0316600285604051610626919061124c565b908152604051908190036020019020546001600160a01b0316146106915760405162461bcd60e51b815260206004820152601660248201527f4167656e7420616c7265616479206465706c6f7965640000000000000000000060448201526064015b60405180910390fd5b600083116107075760405162461bcd60e51b815260206004820152602760248201527f526174652070657220746f6b656e2073686f756c64206265206772656174657260448201527f207468616e2030000000000000000000000000000000000000000000000000006064820152608401610688565b336001600160a01b038316146107855760405162461bcd60e51b815260206004820152602d60248201527f4f6e6c79206167656e7420646576656c6f7065722063616e206465706c6f792060448201527f6167656e7420666163746f7279000000000000000000000000000000000000006064820152608401610688565b6001546040516000916001600160a01b0316908490879087906107a790610ce9565b6107b49493929190611268565b604051809103906000f0801580156107d0573d6000803e3d6000fd5b509050806002866040516107e4919061124c565b90815260405190819003602001812080546001600160a01b039390931673ffffffffffffffffffffffffffffffffffffffff19909316929092179091557fddb7740b09c739315557c2ae4a31c709fb55e0ccc5baa3b3ca2e466ea2959daa90610854908390869089908990611268565b60405180910390a1949350505050565b61086c610bab565b6001600160a01b0381166108af576040517f1e4fbdf700000000000000000000000000000000000000000000000000000000815260006004820152602401610688565b6108b881610bf1565b50565b426004846040516108cc919061124c565b9081526020016040518091039020836040516108e8919061124c565b908152602001604051809103902060030154610e1061090791906112c3565b106109545760405162461bcd60e51b815260206004820152601060248201527f54696d65206e6f7420656c6170736564000000000000000000000000000000006044820152606401610688565b80600484604051610965919061124c565b908152602001604051809103902083604051610981919061124c565b908152602001604051809103902060020154146109e05760405162461bcd60e51b815260206004820152600f60248201527f416d6f756e74206d69736d6174636800000000000000000000000000000000006044820152606401610688565b600154604051610a65916001600160a01b031690600490610a0290879061124c565b908152602001604051809103902084604051610a1e919061124c565b908152604051908190036020018120546001600160a01b031690600290610a4690889061124c565b908152604051908190036020019020546001600160a01b031684610c4e565b6001600484604051610a77919061124c565b908152602001604051809103902083604051610a93919061124c565b908152604051908190036020019020600401805460ff19166001836002811115610abf57610abf610f00565b0217905550505050565b6001546040517f095ea7b30000000000000000000000000000000000000000000000000000000081526001600160a01b038481166004830152602482018490529091169063095ea7b3906044016020604051808303816000875af1158015610b35573d6000803e3d6000fd5b505050506040513d601f19601f8201168201806040525081019061026891906112e4565b6001600160a01b03811660009081526003602052604090205460ff166108b8576040517f87aee99200000000000000000000000000000000000000000000000000000000815260040160405180910390fd5b6000546001600160a01b03163314610608576040517f118cdaa7000000000000000000000000000000000000000000000000000000008152336004820152602401610688565b600080546001600160a01b0383811673ffffffffffffffffffffffffffffffffffffffff19831681178455604051919092169283917f8be0079c531659141344cd1fd0a4f28419497f9722a3daafe3b4186f6b6457e09190a35050565b6040517f23b872dd0000000000000000000000000000000000000000000000000000000081526001600160a01b0384811660048301528381166024830152604482018390528516906323b872dd906064016020604051808303816000875af1158015610cbe573d6000803e3d6000fd5b505050506040513d601f19601f82011682018060405250810190610ce291906112e4565b5050505050565b6112e18061130283390190565b6001600160a01b03811681146108b857600080fd5b600060208284031215610d1d57600080fd5b8135610d2881610cf6565b9392505050565b803567ffffffffffffffff81168114610d4757600080fd5b919050565b600080600080600060808688031215610d6457600080fd5b8535610d6f81610cf6565b9450610d7d60208701610d2f565b9350610d8b60408701610d2f565b9250606086013567ffffffffffffffff811115610da757600080fd5b8601601f81018813610db857600080fd5b803567ffffffffffffffff811115610dcf57600080fd5b886020828401011115610de157600080fd5b959894975092955050506020019190565b634e487b7160e01b600052604160045260246000fd5b600082601f830112610e1957600080fd5b813567ffffffffffffffff811115610e3357610e33610df2565b604051601f8201601f19908116603f0116810167ffffffffffffffff81118282101715610e6257610e62610df2565b604052818152838201602001851015610e7a57600080fd5b816020850160208301376000918101602001919091529392505050565b60008060408385031215610eaa57600080fd5b823567ffffffffffffffff811115610ec157600080fd5b610ecd85828601610e08565b925050602083013567ffffffffffffffff811115610eea57600080fd5b610ef685828601610e08565b9150509250929050565b634e487b7160e01b600052602160045260246000fd5b60038110610f3457634e487b7160e01b600052602160045260246000fd5b9052565b6001600160a01b03868116825285166020820152604081018490526060810183905260a08101610f6b6080830184610f16565b9695505050505050565b6020810161042f8284610f16565b80151581146108b857600080fd5b60008060408385031215610fa457600080fd5b8235610faf81610cf6565b91506020830135610fbf81610f83565b809150509250929050565b600080600060608486031215610fdf57600080fd5b833567ffffffffffffffff811115610ff657600080fd5b61100286828701610e08565b935050602084013567ffffffffffffffff81111561101f57600080fd5b61102b86828701610e08565b92505060408401356003811061104057600080fd5b809150509250925092565b60008060006060848603121561106057600080fd5b833567ffffffffffffffff81111561107757600080fd5b61108386828701610e08565b93505060208401359150604084013561104081610cf6565b6000602082840312156110ad57600080fd5b813567ffffffffffffffff8111156110c457600080fd5b6110d084828501610e08565b949350505050565b6000806000606084860312156110ed57600080fd5b833567ffffffffffffffff81111561110457600080fd5b61111086828701610e08565b935050602084013567ffffffffffffffff81111561112d57600080fd5b61113986828701610e08565b93969395505050506040919091013590565b6000806040838503121561115e57600080fd5b823561116981610cf6565b946020939093013593505050565b60006020828403121561118957600080fd5b5051919050565b600080600080600060a086880312156111a857600080fd5b85356111b381610cf6565b945060208601356111c381610cf6565b935060408601359250606086013567ffffffffffffffff8111156111e657600080fd5b6111f288828901610e08565b925050608086013567ffffffffffffffff81111561120f57600080fd5b61121b88828901610e08565b9150509295509295909350565b60005b8381101561124357818101518382015260200161122b565b50506000910152565b6000825161125e818460208701611228565b9190910192915050565b6001600160a01b03851681526001600160a01b038416602082015260806040820152600083518060808401526112a58160a0850160208801611228565b606083019390935250601f91909101601f19160160a0019392505050565b8082018082111561042f57634e487b7160e01b600052601160045260246000fd5b6000602082840312156112f657600080fd5b8151610d2881610f8356fe608060405234801561001057600080fd5b506040516112e13803806112e183398101604081905261002f9161011e565b826001600160a01b03811661005e57604051631e4fbdf760e01b81526000600482015260240160405180910390fd5b6100678161009c565b50600180546001600160a01b0319166001600160a01b038616179055600261008f838261029d565b506003555061035b915050565b600080546001600160a01b038381166001600160a01b0319831681178455604051919092169283917f8be0079c531659141344cd1fd0a4f28419497f9722a3daafe3b4186f6b6457e09190a35050565b80516001600160a01b038116811461010357600080fd5b919050565b634e487b7160e01b600052604160045260246000fd5b6000806000806080858703121561013457600080fd5b61013d856100ec565b935061014b602086016100ec565b60408601519093506001600160401b0381111561016757600080fd5b8501601f8101871361017857600080fd5b80516001600160401b0381111561019157610191610108565b604051601f8201601f19908116603f011681016001600160401b03811182821017156101bf576101bf610108565b6040528181528282016020018910156101d757600080fd5b60005b828110156101f6576020818501810151838301820152016101da565b50600091810160200191909152606096909601519497939650505050565b600181811c9082168061022857607f821691505b60208210810361024857634e487b7160e01b600052602260045260246000fd5b50919050565b601f82111561029857806000526020600020601f840160051c810160208510156102755750805b601f840160051c820191505b818110156102955760008155600101610281565b50505b505050565b81516001600160401b038111156102b6576102b6610108565b6102ca816102c48454610214565b8461024e565b6020601f8211600181146102fe57600083156102e65750848201515b600019600385901b1c1916600184901b178455610295565b600084815260208120601f198516915b8281101561032e578785015182556020948501946001909201910161030e565b508482101561034c5786840151600019600387901b60f8161c191681555b50505050600190811b01905550565b610f778061036a6000396000f3fe608060405234801561001057600080fd5b50600436106101365760003560e01c80635627c218116100b2578063ba9e104111610081578063d21f954311610066578063d21f954314610260578063f2fde38b14610268578063fc8c0cea1461027b57600080fd5b8063ba9e10411461024f578063cc83eef51461025757600080fd5b80635627c2181461021b578063670cf73214610223578063715018a6146102365780638da5cb5b1461023e57600080fd5b80632d8624b7116101095780632eb8bff8116100ee5780632eb8bff8146101de5780634162cc88146101e657806344471fd91461020657600080fd5b80632d8624b7146101aa5780632df3eba4146101d557600080fd5b806311eac8551461013b57806312065fe01461016b5780631ed9656c14610181578063297751de14610194575b600080fd5b60015461014e906001600160a01b031681565b6040516001600160a01b0390911681526020015b60405180910390f35b61017361028e565b604051908152602001610162565b61017361018f366004610ac7565b610300565b61019c610328565b604051610162929190610b54565b6101736101b8366004610ac7565b805160208183018101805160048252928201919093012091525481565b61017360055481565b600354610173565b6101f96101f4366004610bf8565b6104c4565b6040516101629190610c11565b610219610214366004610c47565b610570565b005b6101f961075a565b610219610231366004610bf8565b610767565b610219610774565b6000546001600160a01b031661014e565b6101f9610788565b61017360035481565b600554610173565b610219610276366004610c71565b61081a565b610219610289366004610c8c565b610871565b6001546040516370a0823160e01b81523060048201526000916001600160a01b0316906370a0823190602401602060405180830381865afa1580156102d7573d6000803e3d6000fd5b505050506040513d601f19601f820116820180604052508101906102fb9190610cd1565b905090565b60006004826040516103129190610cea565b9081526020016040518091039020549050919050565b606080600060068054905067ffffffffffffffff81111561034b5761034b610a22565b604051908082528060200260200182016040528015610374578160200160208202803683370190505b50905060005b6006548110156103e45760046006828154811061039957610399610d06565b906000526020600020016040516103b09190610d56565b9081526020016040518091039020548282815181106103d1576103d1610d06565b602090810291909101015260010161037a565b5060068181805480602002602001604051908101604052809291908181526020016000905b828210156104b557838290600052602060002001805461042890610d1c565b80601f016020809104026020016040519081016040528092919081815260200182805461045490610d1c565b80156104a15780601f10610476576101008083540402835291602001916104a1565b820191906000526020600020905b81548152906001019060200180831161048457829003601f168201915b505050505081526020019060010190610409565b50505050915092509250509091565b600681815481106104d457600080fd5b9060005260206000200160009150905080546104ef90610d1c565b80601f016020809104026020016040519081016040528092919081815260200182805461051b90610d1c565b80156105685780601f1061053d57610100808354040283529160200191610568565b820191906000526020600020905b81548152906001019060200180831161054b57829003601f168201915b505050505081565b610578610974565b6001546040516370a0823160e01b815230600482015282916001600160a01b0316906370a0823190602401602060405180830381865afa1580156105c0573d6000803e3d6000fd5b505050506040513d601f19601f820116820180604052508101906105e49190610cd1565b10156106375760405162461bcd60e51b815260206004820152601460248201527f496e73756666696369656e742062616c616e636500000000000000000000000060448201526064015b60405180910390fd5b6001546040517fa9059cbb0000000000000000000000000000000000000000000000000000000081526001600160a01b038481166004830152602482018490529091169063a9059cbb906044016020604051808303816000875af11580156106a3573d6000803e3d6000fd5b505050506040513d601f19601f820116820180604052508101906106c79190610dcb565b6107135760405162461bcd60e51b815260206004820152600f60248201527f5472616e73666572206661696c65640000000000000000000000000000000000604482015260640161062e565b816001600160a01b03167f7fcf532c15f0a6db0bd6d0e038bea71d30d808c7d98cb3bf7268a95bf5081b658260405161074e91815260200190565b60405180910390a25050565b600280546104ef90610d1c565b61076f610974565b600355565b61077c610974565b61078660006109ba565b565b60606002805461079790610d1c565b80601f01602080910402602001604051908101604052809291908181526020018280546107c390610d1c565b80156108105780601f106107e557610100808354040283529160200191610810565b820191906000526020600020905b8154815290600101906020018083116107f357829003601f168201915b5050505050905090565b610822610974565b6001600160a01b038116610865576040517f1e4fbdf70000000000000000000000000000000000000000000000000000000081526000600482015260240161062e565b61086e816109ba565b50565b610879610974565b6000610886826064610e03565b9050806004846040516108999190610cea565b90815260200160405180910390208190555060006004846040516108bd9190610cea565b908152602001604051809103902054111561091057600680546001810182556000919091527ff652222313e28459528d920b65115c16c04f3efc82aaedc97be59f3f377c0d3f0161090e8482610e6f565b505b80600560008282546109229190610f2e565b9091555050604051610935908490610cea565b604051908190038120828252907f6abfc79dbf73254b8647b5901e9c1f66bd34f18ce30ec5aae0746bdc571f64759060200160405180910390a2505050565b6000546001600160a01b03163314610786576040517f118cdaa700000000000000000000000000000000000000000000000000000000815233600482015260240161062e565b600080546001600160a01b038381167fffffffffffffffffffffffff0000000000000000000000000000000000000000831681178455604051919092169283917f8be0079c531659141344cd1fd0a4f28419497f9722a3daafe3b4186f6b6457e09190a35050565b634e487b7160e01b600052604160045260246000fd5b600082601f830112610a4957600080fd5b813567ffffffffffffffff811115610a6357610a63610a22565b604051601f8201601f19908116603f0116810167ffffffffffffffff81118282101715610a9257610a92610a22565b604052818152838201602001851015610aaa57600080fd5b816020850160208301376000918101602001919091529392505050565b600060208284031215610ad957600080fd5b813567ffffffffffffffff811115610af057600080fd5b610afc84828501610a38565b949350505050565b60005b83811015610b1f578181015183820152602001610b07565b50506000910152565b60008151808452610b40816020860160208601610b04565b601f01601f19169290920160200192915050565b6000604082016040835280855180835260608501915060608160051b86010192506020870160005b82811015610bad57605f19878603018452610b98858351610b28565b94506020938401939190910190600101610b7c565b50505050828103602084015280845180835260208301915060208601925060005b81811015610bec578351835260209384019390920191600101610bce565b50909695505050505050565b600060208284031215610c0a57600080fd5b5035919050565b602081526000610c246020830184610b28565b9392505050565b80356001600160a01b0381168114610c4257600080fd5b919050565b60008060408385031215610c5a57600080fd5b610c6383610c2b565b946020939093013593505050565b600060208284031215610c8357600080fd5b610c2482610c2b565b60008060408385031215610c9f57600080fd5b823567ffffffffffffffff811115610cb657600080fd5b610cc285828601610a38565b95602094909401359450505050565b600060208284031215610ce357600080fd5b5051919050565b60008251610cfc818460208701610b04565b9190910192915050565b634e487b7160e01b600052603260045260246000fd5b600181811c90821680610d3057607f821691505b602082108103610d5057634e487b7160e01b600052602260045260246000fd5b50919050565b6000808354610d6481610d1c565b600182168015610d7b5760018114610d9057610dc0565b60ff1983168652811515820286019350610dc0565b86600052602060002060005b83811015610db857815488820152600190910190602001610d9c565b505081860193505b509195945050505050565b600060208284031215610ddd57600080fd5b81518015158114610c2457600080fd5b634e487b7160e01b600052601160045260246000fd5b8082028115828204841417610e1a57610e1a610ded565b92915050565b601f821115610e6a57806000526020600020601f840160051c81016020851015610e475750805b601f840160051c820191505b81811015610e675760008155600101610e53565b50505b505050565b815167ffffffffffffffff811115610e8957610e89610a22565b610e9d81610e978454610d1c565b84610e20565b6020601f821160018114610ed15760008315610eb95750848201515b600019600385901b1c1916600184901b178455610e67565b600084815260208120601f198516915b82811015610f015787850151825560209485019460019092019101610ee1565b5084821015610f1f5786840151600019600387901b60f8161c191681555b50505050600190811b01905550565b80820180821115610e1a57610e1a610ded56fea2646970667358221220c88359ed6a717cfa4f230623e8ef217775955dd3d0326ed8cdff32c2d6c0fdc764736f6c634300081b0033a264697066735822122093720713d175f2eb2e55f8c66b625d9a62c1806e73a86d3723b8117116d3f40864736f6c634300081b0033",
  "linkReferences": {},
  "deployedLinkReferences": {}
}